:1010000000800020311400001914000019140000A1
:1010100000000000000000000000000000000000D0
:101020000000000000000000000000001914000093
:1010300000000000000000001914000085140000EA
:1010400019140000191400001914000019140000EC
:101050001914000019140000191400001D140000D8
:101060001914000045540000191400003554000004
:101070002554000019140000CD310000191400009F
:1010800019140000191400001914000019140000AC
:1010900000000000191400001914000019140000C9
:1010A000191400001914000019140000191400008C
:1010B0000000000010B5064C2378002B07D1054B2B
:1010C000002B02D0044800E000BF0123237010BDB4
:1010D000B000002000000000E86F0000084B10B5D1
:1010E000002B03D00749084800E000BF0748036809
:1010F000002B00D110BD064B002BFBD09847F9E721
:1011000000000000B4000020E86F0000A8000020EC
:1011100000000000704710B500F090FA642000F065
:10112000EFF900F0A5FA10BD7047000010B5064CAD
:10113000062307221821200000F056F8034A04492C
:10114000200004F0A7F910BDCC0000200000002012
:1011500015110000002070477047F7B56B46DA1D87
:101160000023137003331940060005000400030038
:1011700081766C366E357E348033022923D0032984
:1011800028D007007837012910D0C0211170397894
:1011900031800100793109782980218881811B887B
:1011A000C3810123362103F049F8F7BDA021117056
:1011B0000100793109783180397829802188C1810D
:1011C0001B888381EDE701007B31097831800100C4
:1011D0007C31E0E76021117001007C3109783180B9
:1011E00001007B310978E8E713B50092A0220400E2
:1011F000019352000B00F02100F0C2F8044B2200D2
:101200000833236000237B3220001370537016BD17
:10121000E0580000F8B51600020004007A3213709E
:101220000D00002100F0EAF8270020002200210034
:101230007C30793778327B31EF2D1FDC4223FF334E
:101240009B1B9C46DB0F63445B10DBB203703B705F
:10125000F1235B1B5B101370F0235B1B5B100B70A7
:1012600023007E331D805E802000104900F0A6F828
:10127000236800211B6B20009847F8BDF02D0BD18F
:101280008C235B009E4207D1053BFF3B3B70002354
:1012900003700B701370E3E740239B1B3B7000232C
:1012A0000370103B5B1BDBB2F3E7C046BC58000089
:1012B00010B5002900D1064903002122703341678F
:1012C0001A70013A5A709A7A02F0EEFB10BDC046CD
:1012D0000048E80170B51E0004AB1D88030004003F
:1012E0006C33188802331B880818D21880B292B267
:1012F000861955190004013E120406432A212000D4
:10130000013D154302F0FEFE3100200003F015F808
:1013100020002B2102F0F6FE2900200003F00DF83A
:101320002C21200002F0EEFE70BD73B56B46DA1D75
:101330000023137003331940060003000400050066
:10134000817678366C3379346E35022905D00329DD
:1013500013D001290AD0C021117031781980237867
:101360002B800123362102F069FF73BDA02111708B
:101370003178298021781980F3E76021F7E70000B0
:1013800037B5040007AD06A800782D7840B26DB2DD
:1013900001950090200002F071FB074B22000833FA
:1013A00023600023783213705370230002227A33B3
:1013B00020001A703EBDC04640590000F7B50C78B9
:1013C00001904B1C002C18D07F255F789E1C3D405F
:1013D000197832002B00019802F06EFF7AB273196F
:1013E000002A07DA18785D1CFF2800D1F53000F0DC
:1013F00087F82B00013CE4B2E4E7F7BD036870B561
:101400001B6D0D00002104009847002D03D029001A
:101410002000FFF7D3FF70BD03BEFEE7034B10B5FE
:101420001B68002B00D0984710BDC046500100201B
:1014300070B50F490F4CA14204D100F015FC00F02B
:10144000B7FAFEE70C4D00238D42F6D0CA18E81813
:10145000A24205D39042F0D0084B0949002204E093
:10146000006804331060F1E704C38B42FCD3E4E767
:1014700000000020B0000020EC6F0000B000002051
:101480007419002010B500F090FA002801D100F086
:1014900051F810BD014B18607047C0465001002044
:1014A000F7B51348012284461249134C8E686368CD
:1014B00005689B0E1340019288686268019F920E36
:1014C0003A4067463F6893420ED1BD420CD18642F6
:1014D0000AD35B19FA254868AD00861B07486B43A1
:1014E0007043000DC018FEBD3D0013000600E3E789
:1014F0005401002010E000E000ED00E05555000030
:1015000070B5041E10D0FFF7CBFF050000F04CFAB9
:10151000FFF7C6FF054B401B9842F7D9FA23013C61
:101520009B00ED18002CF3D170BDC046E70300000E
:101530007047000010B5034A13680133136000F0D0
:10154000A1FA10BD5401002070B5054D2C00F934EE
:10155000FF340C3C200001F0D9FDAC42F9D170BD44
:10156000DC010020F0B587B0059300231E000D9C20
:1015700002900391049200910193039A059B9B189A
:10158000009A9A4255DA029F049B029A9B189F4246
:101590004ADA019B0C9A5B00985A03239B1B9B0021
:1015A00018410F2318406B46013800229A5E39B269
:1015B0000E280AD8204D03F075FF181B1D1F21238C
:1015C0002527292B2D2F3133350000231A480136CA
:1015D000F6B202F00EFE042E04D10026019B013368
:1015E0009BB201930137FFB2CEE723882800EEE7D4
:1015F0006388FBE7A388F9E7E388F7E72389F5E742
:101600006389F3E7A389F1E7E389EFE7238AEDE74D
:10161000638AEBE7A38AE9E7E38AE7E7238BE5E759
:10162000638BE3E7A38BE1E7009B0133DBB200931D
:10163000A3E707B0F0BDC04658010020F02210B566
:10164000094C110002232000FFF7E4FD20000021D7
:1016500001F0F6FE20000321FFF77FFD0349200083
:1016600002F08CF910BDC04658010020745D0000E6
:1016700037B5164C0021200001F0E2FE200014498D
:1016800002F07CF901231E255B42E382A38295339D
:10169000638225820F49200000F0CCF90E4920001A
:1016A00000F0D4F90D4BC22201930D4B5021009351
:1016B00017202B00FFF756FF0D2323829C336382F4
:1016C0000849200000F0C2F937BDC046580100208B
:1016D000745D00003D5D00004E5D00005A64000036
:1016E0007C600000545D000070B5804C062307222A
:1016F00018212000FFF778FD7D4E7E493200200042
:1017000003F0C8FE7C4C7D49200001F049FD20001B
:101710007B490C3001F044FD20007A49183001F07B
:101720003FFD20007849243001F03AFD2000774940
:10173000303001F035FD200075493C3001F030FDBE
:1017400020007449483001F02BFD200072495430CC
:1017500001F026FD20007149603001F021FD2000DC
:101760006F496C3001F01CFD20006E49783001F0AB
:1017700017FD20006C49843001F012FD20006B49F8
:10178000903001F00DFD200069499C3001F008FD0A
:1017900020006849A83001F003FD20006649B430FC
:1017A00001F0FEFC2000654DC030290001F0F8FC7E
:1017B00020006349CC3001F0F3FC20006149D830AF
:1017C00001F0EEFC20006049E43001F0E9FC20006B
:1017D0005E49F03001F0E4FC20005D49FC3001F08E
:1017E000DFFC200009305B49FF3001F0D9FC20000C
:1017F00015305949FF3001F0D3FC20002130574902
:10180000FF3001F0CDFC20002D302900FF3001F029
:10181000C7FC200039302900FF3001F0C1FC200056
:1018200045304F49FF3001F0BBFC200051304D499D
:10183000FF3001F0B5FC20005D304B49FF3001F076
:10184000AFFC200069304949FF3001F0A9FC2000BD
:1018500075304749FF3001F0A3FC20008130454935
:10186000FF3001F09DFC20008D304349FF3001F036
:1018700097FC200099304149FF3001F091FC200095
:10188000A5303F49FF3001F08BFC2000B1303D49CD
:10189000FF3001F085FC2000BD303B49FF3001F0F6
:1018A0007FFC2000C9303949FF3001F079FC20006D
:1018B000D5303749FF3001F073FC2000E130354965
:1018C000FF3001F06DFC2000ED303349FF3001F0B6
:1018D00067FC32003149002003F0DCFD304B1B2255
:1018E0000A21304800F00AF970BDC04658010020B6
:1018F0000000002015110000DC010020A0590000AC
:10190000B0590000C4590000D7590000F059000038
:10191000075A00001E5A00002F5A0000445A0000C7
:101920005D5A0000725A0000865A0000A75A000053
:10193000BF5A0000CF5A0000E35A0000FD5A0000D1
:10194000015B00001A5B0000385B00004F5B000089
:10195000625B00007E5B00009E5B0000B15B0000EC
:10196000CE5B0000DA5B0000AE590000F95B0000BE
:10197000145C00002F5C00004F5C0000665C0000FF
:10198000825C0000A05C0000B75C0000D05C00003E
:10199000F15C00000C5D0000215D000049150000B5
:1019A00000127A00D403002070470020704770476F
:1019B00010B501F02BFA03F019FEFFF7F8FF012034
:1019C000FFF79EFD084C200000F06EFC200000F0A8
:1019D00029FDFFF7A0FBFFF7A7FB044B002BFAD074
:1019E00000E000BFF7E7C046400400200000000010
:1019F000F7B506000D000C008B180193019B671BC7
:101A00009C4207D0336821781B6830009847013426
:101A10000028F3D13800FEBD70B505000C00081E8B
:101A200007D003F0F9FE2B6802005B682100280054
:101A3000984770BD10B5FFF7EFFF10BD10B5024914
:101A4000FFF7EAFF10BDC0467864000070B50400DF
:101A5000FFF7E2FF05002000FFF7F0FF401970BD1F
:101A600010B50400FFF764FD014B1C6010BDC046BB
:101A7000040000200122024B52421A607047C04607
:101A800004000020164A10B51368591C27D0013BEA
:101A90001360002B23D172B6124B134A04339342C6
:101AA00008D8BFF34F8F114A114BDA60BFF34F8F45
:101AB000C046FDE70F4A01211000147D0C42FCD006
:101AC0002021148BFF319B085B0021431183D361DC
:101AD000094B13800123027D1A42FCD0E1E710BDBF
:101AE0000400002000100000030200000400FA05BA
:101AF00000ED00E00040004102A5FFFF42802022EF
:101B000042721F3A8272002201800521C274027360
:101B1000044A43604174C161934201D8024B43605F
:101B20007047C046B888000000127A00037D002B81
:101B300004D14375837583610133037570477FB5A5
:101B4000C36802AD04000E0002916A608B4203D1AB
:101B5000028AAB889A4218D02000062229000C3055
:101B600003F07CFD206802F048FD6B79227AE17970
:101B700000932068002302F049FE20682979320092
:101B800002F010FD206802F02FFD7FBD10B50400AB
:101B9000FFF7CCFF2079022101F05AFAA079022147
:101BA00001F056FA6079022101F052FA024B20004E
:101BB00006CBFFF7C4FF10BD1004002007B5437D1E
:101BC00000910192002B07D09A070AD5EFF31082FB
:101BD00053425341837572B60099019AFFF7AFFFE4
:101BE00007BDDB07F8D5038B014A9360F4E7C046D5
:101BF00000180040437D002B05D09A0704D5837D53
:101C0000002B00D062B67047DB07FCD58369024A1F
:101C10009BB2D360F7E7C0460018004010B50068DB
:101C200002F0F4FC10BD00000B4B0C4A0C491A608A
:101C300000225A711A710B4B19600C211971013174
:101C4000DA605A741A741A759971DA7102390332AA
:101C500059711A727047C0461004002000093D00F7
:101C60003C0C0020F40300201E2270B54648474972
:101C7000436893431C3A1343436008238C6923430E
:101C80008B61434C434B9C829C8A14439C82DC684E
:101C90001442FCD00124404A14701578254203D028
:101CA00055786DB2002DF8DB01249460547864B24D
:101CB000002CFBDB394C5460547864B2002CFBDB05
:101CC0008224E4015480547864B2002CFBDB0224AB
:101CD0009C840E34DD682542FCD0314CDC6210243B
:101CE000DD682542FCD09D8C2E4C2C439C84102416
:101CF000DD682542FCD002249D8C80262C439C84E8
:101D00004024DD683542FCD0DD682542F9D010243E
:101D1000DD682542FCD000249460547864B2002C25
:101D2000FBDB214C5460547864B2002CFBDB1C6A52
:101D30001E4D2C4080251C621C6AAC431C62032390
:101D400093601B4B536053785BB2002BFBDB00238B
:101D5000FF240B72174A4B728B72CB72164B1A60B0
:101D6000164B174A1B6811689A065B01C90E23407F
:101D7000520F12020B431343124A13858023426809
:101D80001343436070BDC046004000410004004062
:101D90000C06000000080040000C00400105010096
:101DA000B905FF7D040A000000070300FFFCFFFFE8
:101DB00003060100006CDC020800002024608000A3
:101DC0002060800000400042704710B5040002F01F
:101DD00061FB200010BD0000F0B5822919D1C3B20B
:101DE000294D5A01AA189169284C80010C40C02144
:101DF00089052143916126490833081870215061F3
:101E000028685B011A5C8A43110030220A431A5485
:101E1000F0BD0029FCD1C026C1B21B4C4B01E31818
:101E20009A681A4DB6052A4032439A60194A8001D1
:101E300012185A600A000727246808325201115DFF
:101E4000B9430F000121394311559F6910493D40A5
:101E500008182E439E6158617020115D814308006F
:101E600010210143115599680B48A21808408021A0
:101E70004903014399609968890B8903996040235C
:101E800011790B431371C3E7F8080020FFFFFF8FA0
:101E90006C0400202C060020FF3F00F0EFF31083BD
:101EA00003600123436072B670470368002B02D1C0
:101EB00062B6BFF36F8F7047F7B50600FC36B369A3
:101EC0000400002B18D1B2277F00C55D6846FFF7DC
:101ED000E5FF019BEDB2013B02D3E55DEDB2FAE710
:101EE00068460193FFF7E1FF002D01D10020FEBD00
:101EF000706E336EC01AFAE76846FFF7CFFFD8223C
:101F00000025019B5200013B02D3A55CEDB2FAE72C
:101F100068460193FFF7C9FF002DE7D0D6235B0089
:101F2000E058043BE358E5E710B54468FC304369EA
:101F30000B48DBB25A01A21891680833084080218F
:101F400049030143916091685B01890B89039160AA
:101F50002268D318402219790A431A7110BDC0466D
:101F6000FF3F00F0F7B50500FC352B7D42681900F6
:101F700004000831106849014118C979C90711D511
:101F80005B01D21893689B049B0C0CD12000FFF7D7
:101F9000CBFF63681A686B69DBB208335B01D31847
:101FA0007F22DA71F7BDE969002923D16B6623002E
:101FB00001266933FF33EE6168465360B227FFF7AD
:101FC0006DFF7F00B221019BFF31013B5A1C38D0CD
:101FD000D822E6555200A25C581ED2B26254625C0E
:101FE0008446002A04D120000193FFF79DFFE9E712
:101FF0006346EBE7D621490063500023EB612300E1
:102000001D33FF3353606846D826FFF747FF01278B
:102010007600B221019BFF31013B5A1C11D0B22244
:10202000A7555200A25C581ED2B26254625C84462C
:10203000002A04D120000193FFF776FFE9E7634609
:10204000EBE768460193FFF730FFA2E7F7B505001D
:1020500068462C00FFF722FF0027FF22019BFC347B
:10206000013B0DD3E0682169884204DBE768206901
:10207000D71B3F18F4E72769E1687F1A013FEFE7B4
:1020800068460193FFF711FFA3696846002B41D111
:10209000FFF704FFB221019B4900013B5A1C0CD001
:1020A0006E5C5A1EF6B2002E05D168460193FFF70A
:1020B000FCFE3000FEBD1300F0E7684601930026E9
:1020C000FFF7F3FEFF22BE4203D0236E616E8B4208
:1020D00060D3636E226E9A42EBD1002323660133F4
:1020E000A3616846B224FFF7D9FE6400B222002142
:1020F000019BFF32013B581CD7D02955A85C5F1EBD
:10210000002805D0A95428000193FFF70DFFEDE743
:102110003B00F0E7FFF7C2FED821019B4900013BDD
:102120005A1C06D06E5C5A1EF6B2002EBDD01300AB
:10213000F6E768460193FFF7B8FED4220026520066
:10214000BE4205D0D6214900AB5869588B4232D3E4
:10215000D6235B00EB58A9589942AAD100236846C0
:10216000AB50A361D824FFF799FE6400B22200218E
:10217000019BFF32013B581C97D02955A85C5F1E7C
:10218000002805D0A95428000193FFF7CDFEEDE704
:102190003B00F0E7591CEB18FF332166597FE368D9
:1021A000206901331340834203D0E068281801728C
:1021B000E360013687E7591CA950FF21EB1869330A
:1021C000FF331B789C46E36801330B4021698B4247
:1021D00004D06046E16869180872E3600136AFE731
:1021E00010B50400FFF732FF2300FC331969DA68E9
:1021F000914203D01B69E418207A10BD01204042AF
:10220000FBE710B50400FC34FFF720FFE06823690A
:10221000C01A01D50130FF3010BDF0B585B0019274
:1022200000910500FFF712FF02A8FFF737FE01201B
:102230000024FF26039A4042013A1DD32B00FC33B1
:1022400001998C42F8D2D9681F69C91B01D50131A7
:10225000FF310029F0D01969DF688C460100BC45C8
:1022600006D019691F69691801373740097A1F615B
:10227000009F39550134E3E702A80392FFF715FEEA
:10228000200005B0F0BD37B56B46DC1D00230D0006
:10229000237002F075FF210002F0F2FE2B6818187F
:1022A000286020783EBD0000F8B500244E4B012187
:1022B00005001A201C7000F053FE01211A2000F0C6
:1022C0009BFE4A4B012119201C7000F049FE0121A0
:1022D000192000F091FE2023454A0F20D1690B43BD
:1022E000D361012243490B7813430B70424B197899
:1022F0008143197006211C78214319703F490C78DD
:1023000022430A701A7802401A70602219780A4330
:102310001A703B4B3B4A5A805F78FF09FCD13A4820
:10232000FFF7B8F8394E0123300010C83900227881
:10233000134380222370520003F099F9A378DB073E
:10234000FCD41F200436324B66621B685A0B990C72
:102350009B01024001405B0F824200D105221F29F0
:1023600000D10239072B00D1043B268D294F0240B2
:102370003E40920132432285228D014082430E006D
:10238000110031432185228D1903234B7F201340F7
:102390000B430C2123850823E2788A43134303224D
:1023A000E370E3789343013A1343E37023780340E7
:1023B0002370042320780343C120237023898000E5
:1023C0008B43164923810B581B021B0A0B50802399
:1023D0000B60237800211A430123227010482B70D0
:1023E00002F042FEF8BDC0466104002060040020F7
:1023F00000040040584400413C440041594400411D
:10240000000C004006400000ED2D0000F808002000
:10241000246080003FF8FFFFFF8FFFFF00E100E036
:10242000880C00200078002810D00121084B1B6880
:102430001A898A431A810822198B0A431A830422B3
:10244000198B0A431A830022024B1A607047C04658
:10245000F8080020F008002010B50F4A93699B0B84
:102460009B03936113680222FF331A729879823AB0
:1024700002439A711A7A9207FCD57F24074A2140B9
:10248000937A0800A3431900802301439172917A43
:102490005B420B43937210BDF808002000500041CE
:1024A00010B50C0002F06CFE210002F020FE0028A6
:1024B00004D1034A93699B0B9B03936110BDC046F3
:1024C000F8080020F8B50D00832A19D1CBB2394C99
:1024D0005A01A21891693848AD010840C021890508
:1024E00001439161354920684D19702108335561C8
:1024F0005B011A5C8A43110040220A431A54F8BD5A
:10250000022A52D12E4A8B009858002802D0036824
:102510005B699847DA20400001F0B8FF8022040090
:10252000244E284B4660036052000021083003F01F
:102530009EF822000023FC32D360556113611366BC
:102540009361D3615366B2225200A3544432A35024
:102550000432A3500432A354B222FF32A354EAB28D
:10256000500131188B68144F08321F40C0239B055F
:102570003B4307278B6033685201D65CAD00BE43F6
:10258000B446032667463E43D65422001D32FF322E
:102590004A6001221B18FF33997A20000A439A727D
:1025A000FFF7C2FC064B5C51A9E711002800FFF7BA
:1025B00013FCA4E7F8080020FFFFFF8F6C04002045
:1025C000440400208464000070B505000124064B1B
:1025D000A200D258002A06D0210028000134FFF7BB
:1025E00071FF0A2CF3D170BD180400200B4BCAB246
:1025F0000B48890159185301C31859619969083268
:10260000890B89039961036852019A180223D371D7
:102610005179823B0B4353717047C0466C040020D4
:10262000F8080020084B8A00D05810B5002803D0C5
:1026300003689B68984710BDC9B2044B49015918FB
:1026400088688004800CF6E744040020F808002025
:1026500010B50C00FFF7E6FF00280CD0064BE4B2E3
:102660001B68083464011C19802362795B421343A0
:1026700063710223E37110BDF8080020F0B51C005F
:10268000304B85B01B6807000D000292002B56D01E
:102690002D4E3178C9B2002902D1192000F0ACFCCE
:1026A00064233370294BAA00D058002808D003684F
:1026B00022005B68029998470400200005B0F0BD35
:1026C00029003800FFF7AEFF844204D92900380002
:1026D000FFF7A8FF04000121EBB21D4E03935B013D
:1026E0000193F21893689B0B9B039360019A3368E4
:1026F00002989B18FF335A7A0A4316495A72AB0163
:10270000C918220002F0AAFF002CD6D029003800F8
:10271000FFF788FF0028D0D14021039B326808339F
:102720005B01D3181879014319710121D971012175
:10273000019BD318FF339A7A0A439A72BDE70124AA
:102740006442BAE7F008002060040020440400203E
:10275000F80800202C06002013B56B46DC1D220073
:102760000123FFF78BFF012801D1207816BD01203E
:102770004042FBE770B5134BCCB2134A60018901AC
:102780005918131859609968104D08340D4080216C
:1027900049032943402599609968890B8903996009
:1027A00011686301CB181E7935431D719D796D0643
:1027B000FCD564010919CB79DB07FCD512189068A8
:1027C000C0B270BD2C060020F8080020FF3F00F0CA
:1027D00070B50D0000211400FFF7CCFFA04200D916
:1027E000200000230349A34203D05A5CEA5401337A
:1027F000F9E770BD2C060020F0B51E003F4B85B0F8
:102800001B680F000192002B3FD08023DB019E420A
:102810003BD83B4C2178C9B2002902D11A2000F0E4
:10282000EBFB64230025374A2370BB01D3180293C6
:10283000002E2CD0344B1B680393FF233B401C001D
:1028400000930834039B64011C19A379DB0921D090
:102850002E4B2F49186802F02FFE2E4B172158439C
:1028600002F02AFE2C4BE279920713D4DA5D002A9B
:1028700001D10138F7D20122DA55009B224A5B01CF
:10288000D3189A69920B92039A6101256D42280030
:1028900005B0F0BD0022204B3400DA553F2E09D997
:1028A000009B40245A01184B9B18802299691206FC
:1028B0000A439A6122000199029802F0CFFE009B20
:1028C000A1045A01104B890C9B18029A2D195A61C8
:1028D0009A69361B920B92030A439A61009B039AF2
:1028E00008335B01D3180222DA715979823A0A431C
:1028F0005A71019B1B1901939AE7C046F00800200A
:10290000610400206C040020F8080020080000206A
:1029100040420F00701101006304002070B50D00EB
:102920001C000D4EAB01F61811003000220002F021
:1029300095FEEDB209496D014D196E61AB69084A0A
:1029400020001340AB61AB69A2049B0B920C9B036C
:102950001343AB6170BDC0466C040020F808002032
:10296000FF3F00F0F7B5104B01901B780F001500EA
:10297000002B0CD10D4B16001C78002C09D00C4EEE
:102980000C4834880019641902F068FE348028006D
:10299000FEBD002EFBD03A19330000210198FFF74D
:1029A000BDFF2418361AF4E7EC070020ED080020DC
:1029B000EE080020ED070020F8B50E0015000027F6
:1029C000012A27D9100002F035FE0400300002F081
:1029D00023FF01304000032320700222380063707F
:1029E00095420DD9317800290AD0531CDBB201364B
:1029F000A1549D4203D00232E054D2B2F0E72A0043
:102A000021000548FFF7AEFF471EB841C7B22000BE
:102A100002F01AFE3800F8BD40040020F0B500278F
:102A2000012687B01E4B009102A91E700500029777
:102A3000FFF729FC03AC019009223900200002F0C5
:102A400016FE09232370022363709E33E3715A3309
:102A50002372029B6671093363806B461B79237175
:102A60000F4B1F70009B092B07D11A002100280073
:102A7000FFF778FF012007B0F0BD0A4B09221E7056
:102A8000094E2100280002973780FFF76BFF02A94B
:102A90002800FFF7F8FB034B32881F700349E6E775
:102AA000EC070020ED080020EE080020ED070020D4
:102AB00070B5CE7892B005000C00022E0BD18B7948
:102AC000C9792E4809021943FFF7A8FF411E884122
:102AD000C0B212B070BD02F053FB210002F0E4FA64
:102AE000002803D0C117081AC00FF2E7012E0ED13B
:102AF000E279A37912021A432149112A3CDCD2B2AD
:102B0000002A39D02800FFF72DFF0120E1E7032E2E
:102B1000DFD1A378002B28D0022B08D1E279A3794A
:102B2000120218491A432800FFF746FFD1E7012B8C
:102B300005D1E279A37912021A431349F3E7032B73
:102B4000C7D10100412201A802F091FD02F018FB5B
:102B500001A902F0B9FA002805D0E279A37912029E
:102B60001A4301A9DFE70378FFDEE279A3791202B5
:102B70001A430649032AC2DD0A78C3E7400400204D
:102B8000BC640000A0640000AE640000AA64000001
:102B9000CBB204495B01C9188B699B0B9B038B610A
:102BA0007047C046F808002037B5050048780C008B
:102BB0000B2811D802F076FC061D102E1043486435
:102BC0004C4F5D60097801AA002907D102231170DA
:102BD00051702800FFF7A2FE01203EBD00231370B4
:102BE0005370284B1B78012B00D113700223002156
:102BF000EFE78A780023012A04D101AA13705370E9
:102C0000214BEFE71F4A1370204A93699B0B9B03EC
:102C10009361E1E78C78012C06D100211A4B01AABF
:102C20001C7011702300D4E70120002CD5D1154B66
:102C3000164A187093699B0B9B039361CDE78978C3
:102C40002800FFF709FCC7E72800FFF731FFC4E7BA
:102C500001230F4ACBE70B780020DB06BDD128000B
:102C6000FFF7B2FCA2780A4B0A481A6002F0E4F9B6
:102C7000CAE70123084ABAE78A78074B1A60C3E714
:102C80000020AAE7620400206A040020F80800205F
:102C9000F0080020880C0020F40800204B4BF7B50A
:102CA0001E780500002E00D080E0494C23689A8BE6
:102CB00012070DD5082231009A833000FFF78CF8F7
:102CC00010222368FF33997A0A439A72414B1E609F
:102CD00023689A8B52071FD504229A833E4A1378A1
:102CE000002B0AD01378013BDBB213701378002B52
:102CF00003D101211A2000F07FF9384A1378002B04
:102D00000AD01378013BDBB213701378002B03D188
:102D10000121192000F070F92368FF331A7A920616
:102D200003D52022597A0A435A721A7AD20625D537
:102D300068462B4A6946C0CAC0C0A268920B92037B
:102D4000A2604022587902435A7160230A78280011
:102D50001A422CD1FFF728FF00282BD080222368AD
:102D60005242FF3399790A439A712368FF331A7AE2
:102D7000520603D54022597A0A435A727F2601250A
:102D80002368FF331E722F00236808377F01DB1989
:102D9000DB79002B07D0134BAA00D05800280CD0A9
:102DA00003681B6898470135082DECD1F7BDFFF784
:102DB00077FBD1E720220C4BD6E702F0E1F929009E
:102DC00002F0A5F92368DF19FE71ECE7ED08002099
:102DD000F8080020F00800206104002060040020B2
:102DE0002C06002044040020FF50004110B502488A
:102DF000FFF754FF10BDC04640040020014A024BBB
:102E00001A60704700500041F8080020FA21314B49
:102E100010B51868890002F04FFB2F4B013898421B
:102E200056D82E492E4A4860C020136A00061B025D
:102E30001B0A03431362002407238C600B6080216C
:102E4000136A09061B021B0A0B431362FC22254B63
:102E5000196A0A431A62FC22196A92010A431A6229
:102E6000A022196AD2020A431A622000002101340A
:102E700000F076F8142CF8D11B4B1C005A7852B293
:102E8000002AFBDB194A5A80194B1A00597EC909DE
:102E90000129FBD0E421C90099803F21D970537EDC
:102EA000DB09012BFBD0C02300205B011361907074
:102EB00000F024F863785BB2002BFBDB0D4B0E4A6D
:102EC0006380D379DB09012BFBD04123537010BD04
:102ED000FEE7C04608000020FFFFFF0010E000E012
:102EE00000ED00E000040040000C00401E40000027
:102EF000004000422140000000480042164A00B550
:102F00001300517EC9090129FBD00138042816D8C5
:102F10001969124A0A400F211A615A788A4302F04D
:102F2000C1FA0308060B0300110001220A435A707C
:102F300000BD11000322F9E711000222F6E7F02399
:102F400011691B050B430F21136153788B43190043
:102F500002230B435370EBE700400042FFFFFFF0FA
:102F6000182330B51D00040045430820204A551998
:102F70002856013014D0032912D808006343D156D3
:102F8000D31802F08FFA02280E1B5868CB010221D9
:102F9000184A9B181A1840321170012282405A6058
:102FA00030BD5868CB010621124A9B181A184032CE
:102FB0001170012282405A609A61F1E75868CB0192
:102FC00006210C4A9B181A184032117001228240C7
:102FD0005A605A61E4E75868CB010221054A9B1800
:102FE0001A1840321170012282409A60D8E7C04618
:102FF000D0640000004400411823F0B50824584371
:10300000114A13181C5701341BD0012635005F6884
:103010008356BD400D4ADB019A18906828420BD1B7
:103020000C00601E8441D2194032107834400336BF
:10303000A400B04320431070044A9B18002901D11A
:103040005D61F0BD9D61FCE7D0640000004400417B
:10305000F8B50300182058432A4A1018007A40B2E5
:103060000400013013D0481C00240C280FD802F0B3
:1030700019FA451C1C1C1C1C1C1C1C0707070700FC
:10308000092906D100211800FFF76AFF002420005B
:10309000F8BD0A2901D10839F5E700240B29F6D13A
:1030A0000A391800FFF75CFFF1E718204343D018F6
:1030B000466801253400D2561348D201121873080D
:1030C000D31830332C401878002C0BD00F24090172
:1030D00020400143C9B292191970403213781D4340
:1030E0001570D3E70F27B84301439219C9B219707D
:1030F000130040331A7815431D70C8E70124644259
:10310000C5E7C046D06400000044004110B504008B
:103110000068002801D002F097FA200010BD10B519
:1031200004000068002801D002F08EFA002323601A
:10313000A360636010BD70B504000D00006801312C
:1031400002F046FB031E01D0012028C470BD0368B5
:1031500010B50400002B04D043688B4201D301203A
:1031600010BD2000FFF7E7FF0028F9D0A368002B6F
:10317000F5D122681370F2E770B50E00110004005B
:103180001500FFF7E4FF002804D12000FFF7C7FF78
:10319000200070BDA5603100206802F035FBF7E724
:1031A000002370B504000D00036043608360994202
:1031B00007D0080002F030FB290002002000FFF7D2
:1031C000DBFF200070BD2E207047000010B50248C4
:1031D00001F081FC10BDC046FC09002013B5124966
:1031E000124801F05BF91249124801F057F91249EF
:1031F000124801F053F91249124801F04FF91249EF
:10320000124801F04BF9124C1249200001F046F926
:1032100001230193023300931F221B3321000E4828
:1032200001F0EEFB13BDC04600080042380C002040
:10323000000C00423C0C002000100042400C00201A
:1032400000140042440C002000180042480C0020EA
:103250004C0C0020001C0042FC090020FEE7F0B5E9
:1032600015000C001F0089B00EAB00229B5E0FAA58
:103270001288009005925A1BD11752184A400292A8
:103280003A1BD11752184A4003920399029A8A4274
:1032900005DD3A001F00130022002C001500BC427F
:1032A00005DD2A001D00130022003C0017003A1B18
:1032B00092B204925A1BD11752184A4007926A469A
:1032C0001021515E0098CA0F52185210D90F019266
:1032D000EA179D424A410123524213430693009B41
:1032E0001B685B699847009B1B68BC421FDC9B699D
:1032F000029A03991E00059B8A4215DD22002900CF
:103300000098B047019B079A9B1A9BB21AB2019290
:10331000002A06DA069AAD18049A2DB2D3181BB209
:103320000193013424B2DEE72A002100E8E7DB6ADA
:103330000098984709B0F0BD10B504682469A0470B
:1033400010BD37B506AC258804680095A46BA0476E
:1033500037BD37B506AC258804680095E46BA047F7
:1033600037BD73B506AC0025655F07AC26880468D9
:1033700001960095246CA04773BD7047F0B5160008
:1033800004000D0085B003930AAB1F8803685B69D6
:103390009847039B2268013B9B191BB2009301973E
:1033A000976A2B00320029002000B84723682000CC
:1033B000DB6A984705B0F0BDF0B505001C000E00B3
:1033C000170085B00AAB1B88013C03930368A4195E
:1033D0005B69984703992A680191009723B23100ED
:1033E000946A28003A00A0472B682800DB6A9847B7
:1033F00005B0F0BDF0B50E0087B003930CAB0292A0
:1034000000229B5E050004930DAB1B8834000593DE
:1034100003685B699847039B2A68F3189C420ADAA1
:10342000059B21000093176A049B029A280001342F
:10343000B84724B2EFE7D36A2800984707B0F0BD39
:1034400013B501910E24015F0C22835E0268009186
:10345000146C00221100A04713BDF0B585B0029393
:103460000AAB00241C5F0BAB1B8817000393029B65
:1034700005000E000268994210D1A74202DD3B0010
:1034800027001C00039901340091E31B946B1BB2CD
:103490003A0031002800A04705B0F0BDA7420CD18A
:1034A000029B994201DD029E0291029B0399013326
:1034B0009B1B00911BB2D46BEAE753699847039AB0
:1034C0002B68019200949C6A2800029B3A0031000C
:1034D000A0472B682800DB6A9847DDE7F0B50400B9
:1034E00015000E0087B004930CAB00229B5E059381
:1034F0000DAB1B88039303685B699847039A2368A5
:1035000000925F6A2A00049B31002000B847059BA7
:1035100003995A1E2368009152195F6A3100049B77
:10352000200012B2B847039A236800921F6A2A004B
:10353000059B31002000B8470499039A236801399C
:103540000092891909B21F6A2A00059B2000B8471A
:1035500023682000DB6A984707B0F0BD704703235B
:103560001940817603894289012904D0032902D0B8
:103570008381C28170478281C381FBE701818181A0
:10358000012100234281C281012210B5074C49422A
:103590000834436004608376038243824276027675
:1035A000C1828182C2760377036210BD206E000063
:1035B000F0B595B01D001AAB1B88040005931BAB3A
:1035C0001B88089106931CAB1B78049203931DABD8
:1035D0001F78036A002B00D0C4E00C22835E8B426C
:1035E0007BDD0E22835E049A934276DD0623039AE6
:1035F00053435B18002B70DD049AFB009B18002BD3
:103600006BDD037F002B03D1AF2D01DD0135EDB262
:10361000236820005B69984705235D430C930023D2
:103620000993964B5B191093099A109B00259B5C9C
:103630000B936B469B8C0A936B469B890E936B4650
:103640001B8C0E9A07930A9B5343079AD3181BB2FD
:103650000F9308230D9301220B9B134251D0039B20
:1036600093423CD197423AD1049B0799EA180A9BAE
:1036700012B25918236809B29E69059B2000B04711
:103680000B9B01355B080B930D9B6DB2013BDBB2CD
:103690000D93002BDFD1099B01335BB209930C9B87
:1036A000013BDBB20C93002BBED1059B069A9342E3
:1036B0000FD0039B2268012B42D1012F40D1069BE2
:1036C000079900930531156A09B20823049A20006E
:1036D000A84723682000DB6A984715B0F0BD6B4609
:1036E0000C229B5E2A007A4304990598521821689F
:1036F00012B2019038B20090CE6920000F99B04705
:10370000BEE7059B069A9342BAD0039B012B0CD1CE
:10371000012F0AD1049B0799EA180A9B12B2591883
:10372000236809B29E69069BA8E76B460C229B5E44
:103730002A007A4304990698521812B22168D8E7F1
:103740006B460C215B5E05210E98FF0041430798F4
:1037500000974118069809B20190D5692000049A93
:10376000A847B6E71A7AAD1AEDB25A68ED001B68A1
:10377000551913932B880993AB780F93EB7810931B
:103780000523EB560C930623EB560D93039B012B5D
:1037900001DC012F52DD6B4630229B5E0A936B46A3
:1037A00034229B5E0B930026236820005B699847B8
:1037B00007960696109B069A9A4200DB89E76B46AD
:1037C0001B8A0E930B9B9B187B430E9AD3181BB23C
:1037D00012933300991B0F9AC9B2914247DA5A1CCF
:1037E000D2B211920722134207D1099B0998139A6A
:1037F0000133125C9BB2079209936B461B7F5BB24D
:10380000002B15DA039B012B1CD1012F1AD10E9B23
:103810000D9A08989A18069BD2180C9B12B21B1886
:103820005918236809B29B6920001D00059BA84711
:10383000079B5B00DBB20793119BCBE700230B9345
:103840000A93B0E76B460C229B5E0A9A05985118C2
:10385000039A01905143089A38B28918226800905F
:10386000D26909B215002000129AA847E0E7069D28
:103870001E000135EAB206929CE7C04620690000AE
:10388000F0B5026A85B004000B00002A33D10A2982
:1038900008D1437E0282DB00628A9B18638201208A
:1038A00005B0F0BD0D29FAD0C17E457E007E00290D
:1038B0000DD0062141431027E65F89190C27E65FEA
:1038C000B14204DD618A2282EA00521862820290CB
:1038D000E08A1221625E0190A08A1026A15F00900A
:1038E00003952000FFF764FE0622237E5343228ABD
:1038F0009B182382D3E70A2905D100230382127B78
:10390000437E5343C8E70D29C9D0117A8B42C6DBE9
:10391000907A8342C3DC591AC9B25068C90045186D
:10392000AF78002F27D0E978002924D0E17E667E89
:10393000207E002912D005216956C91941438C46C1
:103940001021675EBC440C21675EBC4506DD00218A
:103950002182127B618A7243521862820290E08A4D
:103960001221625E0190A08A1027E15F0090039609
:103970002000FFF71DFE2B79227EB7E7036A00299E
:1039800006D0002B02D1438A06334382016270477E
:10399000002BFBD0438A063BF7E7000010B504007C
:1039A0000C48814200D90100013A2160511E8A4130
:1039B0006271032B0CD8180001F074FD02080A068E
:1039C00001232000237110BD0223FAE70323F8E747
:1039D0000023F6E7001BB700F7B50026002504001A
:1039E0000027019308AB9E5709AB5D5712B20AAB93
:1039F00009B2DF57FFF7C2FD22001C4B68320833C3
:103A00002360002357700127D5701370967004321D
:103A10001371537113805380019A39006263182225
:103A200055431348636794464219526891402A5699
:103A300061661049D20155180F49E5625218226398
:103A40009E420FDB634673431E00C3185B68094A3E
:103A50009F4033562766DB019A185B186262A362A7
:103A60002000FEBD6562A2622366F9E7786E000061
:103A7000D0640000184400411444004130B50400F3
:103A800085B008A809AD00782D7840B26DB20190DC
:103A900000930295034B2000FFF79EFF200005B026
:103AA00030BDC046F4030020F0B5040085B00F001F
:103AB0001600002900D1614F250000206A352856E4
:103AC000002807DB0121FFF74BFA002001212856CF
:103AD000FFF792FA250000206B3528560121FFF7E9
:103AE0003FFA002001212856FFF786FA23006833A9
:103AF0001D78002D34D133000122390002A8FFF7D0
:103B00004DFF2000062202A9383001F0A7FD4C4BE2
:103B1000606B2664984201D1FEF738F800206934C2
:103B2000205600281ADB0121FFF71AFA0020012194
:103B30002056FFF761FA6420FDF7E2FC0020002127
:103B40002056FFF759FA6420FDF7DAFC0020012126
:103B50002056FFF751FAC820FDF7D2FC05B0F0BDA2
:103B6000012D1DD126000020543630562900FFF7C4
:103B7000F7F9002000213056FFF73EFA0220290015
:103B80003056FFF7EDF9022000213056FFF734FAE6
:103B9000552020560028C1DB0021FFF7E1F9BDE7E1
:103BA0005C221823A256274E53439A5DF3185F6890
:103BB000230000925F331978FAB20F23002900D155
:103BC000083B00259B18DBB20193FFF7FCFA854206
:103BD00019D218236B430099F2568A4210D1FF2262
:103BE000F3185B683A409A420AD8019A934207D880
:103BF00001212800FFF7B4F900212800FFF7FCF9A4
:103C00000135EDB2E1E7250000205D3528560121A0
:103C1000FFF7A6F9002001212856FFF7EDF9012052
:103C200028560135002800DA78E70121FFF798F9D6
:103C3000002001212856FFF7DFF96FE70024F40088
:103C4000F4030020D0640000030010B568331B7833
:103C5000002B04D1816BC26B406BFDF7AFFF10BD31
:103C600010B50400FFF7F0FF23006A331B787F2BA9
:103C700002D8A36A226E1A6010BD030010B5683323
:103C80001B78002B02D1406BFDF7B4FF10BD030081
:103C900010B56A331B787F2B02D8436A026E1A6014
:103CA000FFF7EBFF10BD836C426D1A60436C426DF1
:103CB0001A607047F7B504000E00151E12D0CBB283
:103CC0000093030068331B780F0A002B0BD13900D7
:103CD000606BFDF7A3FF013D0099606BFDF79EFF50
:103CE000002DF4D1F7BD012B17D1013DFAD33300DC
:103CF0001122013A002AF8D019B2A06C00290ADA80
:103D0000A16B0860216CE06C5B000860616CE06C8A
:103D10009BB20860EDE7E16BF3E703005F330193CB
:103D2000CBB29F420FD1019B1A78436B002A08D176
:103D30006D001F70002DD5D02000FFF7B4FF013DAE
:103D4000F8E71980F6E7019B1A78636B002A0ED119
:103D50001F702000FFF7A7FF6A46636B12781A7086
:103D60002000013DFFF79FFF002DECD1BAE71E8038
:103D7000F6E7F0B505001E0085B00AAB00241C5F15
:103D80000BAB1B880068A7B200970393476DB3B2D3
:103D9000280092B289B2B8472200039972432800E2
:103DA000FFF788FF05B0F0BDF0B587B00CAC00257B
:103DB000645F0DAD2D880595002B41D0002C3FD0C0
:103DC000002B05DA9BB2013159185B4209B21BB2D4
:103DD0000C26855F8D4233DD002C05DAA4B201325A
:103DE000A218644212B224B20E27C65FB4469642AD
:103DF00026DDCE18B6B20396013E36B20496002EEA
:103E00001EDB1719BFB27E1E36B2002E18DB00294A
:103E100003DA6B460C215B5E0021002A01DA0022E6
:103E20003CB2049FBD4201DC6B1A1BB2B44502DCFC
:103E30006446A41A24B2059D00940195FFF799FFEA
:103E400007B0F0BDF0B587B01C000CAB00255D5F7E
:103E50000DAB1B8807000E0002920593002C53D077
:103E6000002D51D0002C05DAA4B20136A619644207
:103E700036B224B20C23FA5EB24245DD002D07DAD9
:103E8000029BADB20133EB181BB26D4202932DB20F
:103E90000E217B5E02998B4236DD311989B28C4648
:103EA000013909B2039100292EDB0299481980B229
:103EB000411E09B20491002926DB002E02DA644675
:103EC000002624B20299002902DA002105B20291EB
:103ED00003998A4201DC941B24B2049A934202DCC7
:103EE000029A9D1A2DB23B6838005B699847059B82
:103EF0003800019300952300029A3100FFF739FF43
:103F00003B683800DB6A984707B0F0BDF0B585B074
:103F10001C000AAB1B8806000D00171E039330DB44
:103F20000E22835EBB422CDD002C2AD005DAA4B21F
:103F30000135651964422DB224B20C22B35EAB4246
:103F40001FDD291989B24A1E12B2002A19DB002D81
:103F500001DA00250CB2934201DC5C1B24B2336809
:103F600030005B699847039B3000019301233A00BE
:103F7000009329002300FFF7FCFE33683000DB6A62
:103F8000984705B0F0BDF0B585B01C000AAB1B88A2
:103F900006000F001500039300292FDB0C22835E1F
:103FA0008B422BDD002C29D005DAA4B2013565192E
:103FB00064422DB224B20E22B35EAB421EDD29193B
:103FC00089B24A1E12B2002A18DB002D01DA002540
:103FD0000CB2934201DC5C1B24B2336830005B6995
:103FE0009847039B30000193009401232A00390075
:103FF000FFF7BFFE33683000DB6A984705B0F0BDBD
:10400000F7B508AC2688002A23DB0E25445F9442CE
:104010001FDD002B1DD005DA9BB2013159185B4220
:1040200009B21BB20C25445F8C4212DDCF18BFB21F
:104030007D1E2DB2002D0CDB002901DA00213BB2E0
:10404000AC4201DC631A1BB2012401960094FFF715
:1040500090FEF7BDF7B508AC2688002923DB0C25B8
:10406000445F8C421FDD002B1DD005DA9BB201326C
:104070009A185B4212B21BB20E25445F944212DDC5
:10408000D718BFB27D1E2DB2002D0CDB002A01DA3D
:1040900000223BB2AC4201DCA31A1BB20093019692
:1040A0000123FFF766FEF7BD030010B568331B78E8
:1040B000002B03D1406BFDF7B1FD10BD012B14D1D6
:1040C0000833013B002BF8D04AB2846C002A0ADA8C
:1040D000826B1460026CC46C49001460426CC46C46
:1040E000C9B21460EDE7C26BF3E703005F331A78DF
:1040F000436B002A03D11970FFF7D5FDDDE789B2C4
:104100001980F9E710B50400036B426E1A60FFF7DF
:10411000CBFFE36A626E1A6010BD70B504000368DD
:104120000D005B6998472300002D09D07033197882
:104130002000FFF7E7FF23682000DB6A984770BD87
:104140007133F4E7030070B568331B7804000D0089
:10415000002B08D1090A406BFDF760FDE9B2606BE6
:10416000FDF75CFD70BD012B14D11033013B002B1A
:10417000F8D02AB2A16C002A0ADAA26B1160226C74
:10418000E16C6D001160626CE16CADB21160EDE745
:10419000E26BF3E703005F331A78436B002A0AD11E
:1041A0000A0A1A70FFF77FFD636BEDB21D702000E5
:1041B000FFF779FDD6E71980F9E773B504001D0014
:1041C000002915DB0C20235E8B4211DD002A0FDB5A
:1041D0000E20235E93420BDD01232068009389B2F9
:1041E000466D92B22000B04729002000FFF7AAFFD9
:1041F00073BDF7B504000D0017001E0000291CDB7D
:104200000C22835E8B4218DD002F16DB0E22835EAC
:10421000BB4212DD03685B69984701232068009365
:10422000A9B2BAB2456D2000A84720003100FFF7BF
:1042300089FF23682000DB6A9847F7BDF7B50400C3
:1042400027006A3701930E001500FFF7FDFC3B784D
:104250007F2B02D8A36A226E1A6031000026236BDE
:10426000626E20001A60FFF71FFFE36A626E1A6039
:10427000019B9E4216DA230068331B78022B0BD178
:1042800023005F331B78002B06D029882000FFF71E
:1042900059FF02350136EBE729782000FFF704FFCC
:1042A0000135F7E73B787F2B02D8636A226E1A60EC
:1042B0002000FFF7E2FCF7BDF7B5040001930E0004
:1042C0001500FFF7C1FC23006A3300931B787F2B96
:1042D00002D8A36A226E1A6031000026236B626E38
:1042E00020001A60FFF7E0FEE36A626E1A60019B2D
:1042F0009E4217DA230068331B78022B0CD123006F
:104300005F331B78002B07D029882000FFF71AFFA6
:10431000AF1C01363D00EAE7297820006F1CFFF74B
:10432000C3FEF6E7009B1B787F2B02D8636A226EE0
:104330001A602000FFF7A1FCF7BD030070B56833D9
:104340001B7804000D00002B12D1090E406BFDF705
:1043500065FC290CC9B2606BFDF760FC290AC9B283
:10436000606BFDF75BFCE9B2606BFDF757FC70BD5D
:10437000012B12D12033013B002BF8D0A26C002D71
:1043800009DAA16B0A60226CE16C6D001160626C4D
:10439000E16C1160EFE7E16BF4E703005F331A783B
:1043A0000E0C436B002A17D10A0E1A70FFF77BFC24
:1043B000636BF6B21E702000FFF775FC2B0A626B70
:1043C000DBB213702000FFF76EFC636BEDB21D7063
:1043D0002000FFF768FCCAE7B6B21E80FFF763FC57
:1043E000636BADB21D80F3E77047000000220B78CD
:1043F00042600370934203D10B4B4360826070476D
:10440000032B01D1094BF8E7042B01D1084BF4E74A
:10441000052B01D1074BF0E7012B01D1064BECE74F
:10442000022BEBD1054BE8E7002C004200200042B4
:1044300000240042002800420030004200340042C4
:10444000F7B56B46DC1D04230C4D210028002370BA
:10445000FFF7CCFF0A4F0B4E3A003100280001F065
:1044600019F80323084D210028002370FFF7BEFF31
:104470003A003100280001F00DF8F7BD6C0C002067
:1044800000000020E9430000500C002010B501F0AE
:10449000D1F810BD10B501F0D7F810BD016070471C
:1044A000F0B505AC25780468981E471EB84126680B
:1044B0009207000632430243072022600140AD010B
:1044C000626829430020022B00D0580311430143A6
:1044D0006160F0BD10B5C0240368A403186812051C
:1044E00022400243C02009048002014011431960A8
:1044F0005A681043586010BD0122036819680A43C6
:104500001A601A68D207FCD4DA69D207F9D4704766
:104510000222036819680A431A60DA699207FCD418
:10452000704703681A7ED20702D41A7E9207FCD520
:104530007047002203685A8370470368187E40075B
:10454000C00F70470368187EC00970478023026857
:104550005B42117E0B43137670470368588B8007CC
:10456000C00F704702230268518B0B43538370477F
:104570000368187EC007C00F70470368188DC0B26B
:10458000704703681A7ED207FCD589B201201985CD
:104590007047012203689A757047012203681A75F3
:1045A0007047000070B5012504684B082B40294076
:1045B000206809075B070B4303432360510003484E
:1045C00000F07AFF0138C0B2207370BD006CDC02CD
:1045D0000122036819680A431A601A68D207FCD4DA
:1045E000DA69D207F9D470470222036819680A43CE
:1045F0001A60DA699207FCD470470368DA69920797
:10460000FCD402211A688A431A6070470268936AD0
:104610005B0A5B0219439162137E5B07FCD5906ACB
:10462000C0B2704780230268DB02116851680B43F7
:1046300053607047036803491A685A680A405A6011
:104640007047C046FFFFFBFF036810B518680322E0
:10465000C006400F094C052809D1586811400904CB
:10466000204001435960DA695207FCD410BD5868F4
:1046700011400904204001435960F7E7FFFFFCFFA8
:10468000036800201A00283211701A7E520704D5E0
:10469000588B01234007C00F5840704703681868C3
:1046A000C006400F043843425841C0B27047036807
:1046B000187E4007C00F70470368187EC007C00F00
:1046C00070470368588BC006C00F70470368187E98
:1046D0008007C00F70470368588B0007C00F7047F2
:1046E00003681A68D206520F052A05D11A7E92076E
:1046F00002D41A7ED207F9D528331878C0B2704791
:104700000368214A30B5934211D0204A93422FD0FA
:104710001F4A93422FD01F4A93422FD01E4A9342E2
:104720002FD01E4A934222D10E23192201E00923E1
:1047300014220121032599401948C02401609908D9
:104740002B40AB40FC359D4089000918A400085956
:10475000A843C0259D402B0003430B518023DB0160
:104760001A43104B5A805A7852B2002AFBDB30BDF4
:104770000A231522DDE70B231622DAE70C23172282
:10478000D7E70D231822D4E700080042000C0042AE
:10479000001000420014004200180042001C0042B9
:1047A00000E100E0000C0040F8B5040016000F0026
:1047B0001D00FFF7A5FF2000FFF79EFE1C22BB0097
:1047C000134072072468120C134323608423A375DB
:1047D000012F18D11021012E00D008390A4B69434E
:1047E0001868C00000F068FE0722A3890240DB04BD
:1047F0005203DB0C1343A3810304A089DB0C400BA1
:1048000040031843A081F8BD08000020F7B5070059
:10481000019308AB1E780D001400FFF7D9FE380095
:10482000FFF76EFFC022240592031440B2070C2646
:1048300007211643019A34430A40C0261100802202
:10484000B6022D043B683540920225430A431D60A1
:104850005A60F7BD0120704710B50368014A1B6A12
:10486000984710BD130400000300FC33D9699A690E
:10487000914203D0DB69C018007D7047012040429F
:10488000FBE710B504000069FFF736FE22000023A5
:10489000FC329361D36186229200A4186360A36006
:1048A00010BDF02001403039484248417047F023A4
:1048B0001B011940802306209B0099420AD0013336
:1048C000FF330130994205D0802302385B009942C2
:1048D00000D0002070470F2001400020012903D0A4
:1048E0000239481E8141481C704700008923F0B5F9
:1048F000182685B002919B000400C05C330008219B
:104900004343324D1700EB185956FEF7A1FB304BCD
:104910000821E05C33004343EB185956FEF798FB3F
:104920002C4BE25C0393022A09D11133E05CFF288F
:1049300005D008214643AE197156FEF789FB8A2639
:10494000B600A05DFF2819D00121FEF709FB18224F
:10495000A35D21495A43AB56AD18DB0158188B2192
:10496000890060501D4901225B188C218900635029
:1049700069688A408D21890062501A600122029B79
:1049800011002069FFF710FF39002000FFF78FFFAB
:10499000390005002000FFF79EFF390006002000C7
:1049A000FFF77FFF33000090290020690122FFF705
:1049B00077FD0B4B2069E25C039BE15CFFF78AFD0E
:1049C0002069FFF7A5FD05B0F0BDC046D06400002A
:1049D0002502000027020000184400411444004151
:1049E00026020000802210B504005200002100F0D1
:1049F0003EFE23000022FC335A6020009A6010BD66
:104A0000F7B51D0008AB1B780400009309AB1B78B9
:104A10001600019300234360FA239B008360114B2F
:104A20000F00083303601430FFF7DCFF20001D3057
:104A3000FF30FFF7D7FF89236A469B002761E654C2
:104A4000094B1278E554094B2000E2546A46084BA2
:104A50001279E2548A22293BFF3B9200A354103280
:104A6000A354FEBDD86E00002502000026020000FF
:104A7000270200000300FC3358689B68C01A01D568
:104A80000130FF30704710B5040020001D30FF30AA
:104A9000FFF7F0FF0028F8D12069FFF742FD10BDB5
:104AA00010B51430FFF7E6FF10BD0300FC33596862
:104AB0009A68914204DB5A689868801AFF30704700
:104AC00098685B68C01A0138F9E710B51D30FF30EF
:104AD000FFF7EBFF10BD10B504000069FFF73DFDC7
:104AE000002805D02069FFF748FD2069FFF73AFD4F
:104AF0002069FFF722FD002820D02069FFF73DFD47
:104B00002200FC329369D1690133DBB28B4203D0BE
:104B100091696118087593618A239B00E35CFF2B00
:104B20000CD020001430FFF7C0FF092806DC8B23CF
:104B30008D229B009200E358A2581A602069FFF76B
:104B400017FD00281AD020001D30FF30FFF792FF1C
:104B5000002822D086239B00E31899685A68914266
:104B600018D08E219A684900A218515C9A680132C7
:104B7000D2B29A60C9B22069FFF703FD2069FFF73E
:104B8000E1FC002805D02069FFF7E0FC2069FFF771
:104B9000D0FC10BD01214942ECE72069FFF7FDFC84
:104BA000ECE7000070B5040000690D00FFF7E0FCC1
:104BB000002824D1FF2686239B00E3185A689968B1
:104BC000013232408A422FD1EFF31083DB070DD43C
:104BD0001E4B5B68DB05DB0DEDD0103B5BB2002BA1
:104BE00019DB9B08C0331A4A9B009B582069FFF7CA
:104BF000BFFC0028DFD02000FFF76DFFDBE72000BF
:104C00001D30FF30FFF736FF0028D3D1290020697F
:104C1000FFF7B7FC17E00F221340083B9B080D4A33
:104C20009B009B181B68E1E75A68013216409A689E
:104C3000964205D08E215A684900A21855545E60EC
:104C40002069FFF7A6FC012070BDC04600ED00E022
:104C500000E100E01CED00E00300FC33D9699A6933
:104C600070B5040091421AD0DA698218157DDA69AC
:104C70000132D2B2DA618A239B00E35CFF2B0CD0B5
:104C800020001430FFF711FF0A2806DD8C238D2247
:104C90009B009200E358A2581A60280070BD0125BD
:104CA0006D42E8E70020704708B4024B9C4610387C
:104CB00008BC6047A54C000030B50F25CB1D01395D
:104CC00002002A40140000093034092A01DD37327D
:104CD00014001C70013B8B42F2D130BD10B50C00AA
:104CE0000B4B1868FFF7E8FF21000A4B08311868E2
:104CF000FFF7E2FF2100084B10311868FFF7DCFFD7
:104D00002100064B18311868FFF7D6FF202010BD90
:104D10000CA0800040A0800044A0800048A080003B
:104D200008B4024B9C46103808BC6047DD4C0000BC
:104D30007047000008B4024B9C46103808BC60471E
:104D4000314D00003F20704713B56B460268D971A2
:104D50000733546819000122A04716BDF0B50B783F
:104D600095B003AC023301900B7042220021200069
:104D700000F07DFC0922042522720422A5756272CE
:104D800006250522242002AE657625779519A074A4
:104D9000E075E076E877300001210630C177300019
:104DA0000730C17704A8C177092021736175801984
:104DB0000631C1770A208019C277032084466546F0
:104DC00005A8C5772E201027801907702F200925E8
:104DD00008238019057004252370033363700EA81F
:104DE000093BE370237163716373A3736274237669
:104DF000A276E27727752785057033203500801964
:104E00000A2603700FA8067010A8017039204019F7
:104E100002703B2035367619317012A90A70802154
:104E20003D3240195219037013704020002249424C
:104E30000E0041335B1918705A70019B20871B7D4F
:104E4000019AA370A37263770133DBB2A377527D1B
:104E5000353816434019C6773120401903703A237C
:104E6000501C5B191870412302320A435B191A70F7
:104E7000210042220248FDF775FD15B0F0BDC04685
:104E80004004002008B4024B9C46103808BC604720
:104E90005D4D000070B50A79037D0C0000259A4233
:104EA0000BD10B784E78A12B09D1212E05D10722E9
:104EB0001F492048FDF756FD0135280070BD212B04
:104EC000FBD1202E19D1072219491A48FDF780FC81
:104ED000174B1A785978090211439A781204114332
:104EE000DA7812060A439621C9008A4202D1DB7998
:104EF000DB0708D5FCF7BEFD08E0222E0AD18A7830
:104F00000B4BDA71E4E7FA20FCF7AAFD002109480F
:104F1000FDF73EFE0125232ECFD1E378A2781B02B8
:104F20001343054A002103481360FDF731FEC4E72F
:104F300010000020400400200C00002008B4024BA8
:104F40009C46103808BC6047954E000010B5417D66
:104F5000006A0131FDF766FB034B1B6801335A1EE3
:104F60009341181810BDC0461800002010B5417DAF
:104F7000006A0231FDF76CFB10BD10B5417D006A7F
:104F80000231FDF733FB10BD70B50D00417D04000B
:104F9000130002312A00006AFDF72EFC002801D11F
:104FA0000123636070BD000010B5054C23685A1CD6
:104FB00004D103685B69984703002060180010BDA6
:104FC00018000020074A0300106810B5411C03D0E8
:104FD00001235B42136010BD597D186A0131FDF752
:104FE000BBFBF8E718000020FA239B0070B5040013
:104FF0008360032383752300002228334260A3616A
:105000000C4B02201D00443323610835631DE2610F
:1050100025602162E075DA778323A362013B236375
:10502000E06200F0ADF82100103100F07DF82000C2
:1050300070BDC0460C6F000010B5437D094A0220C8
:10504000590101331268DBB25B015118D3180122F8
:10505000FF318C7AFF3320438872997A0A439A721F
:1050600010BDC046F80800207047000010B5024986
:105070000248FFF7B9FF10BD40040020880C002053
:1050800070B50E0000254468002C0BD02368310059
:105090005B6820009847002802DB2D18E468F3E7DE
:1050A00001256D42280070BD70B50D004468002CCC
:1050B00008D0236829009B6820009847002802D167
:1050C000E468F4E7200070BD70B50D000026446868
:1050D000002C09D02368290020001B699847361846
:1050E0002D18F6B2E468F3E730002C7070BD70B58F
:1050F0000D004468002C08D0236829001B6820009C
:105100009847002802D1E468F4E7200070BD70B52C
:105110000D004468002C06D023682000DB682900BD
:105120009847E468F6E770BDF0B58C7945780300E0
:105130002A190020072A1FDC5A68824216D15960BA
:105140001A78C8790A7112184D711A7000220B4D25
:10515000944210DD8F6858789600F7590132860026
:1051600001307751D2B25870F2E70200D0680028BF
:10517000FBD1D160E4E70120F0BDC0461804002057
:105180000122054905480B68134003D103704270A2
:1051900043600A607047C046BC0C0020C00C002071
:1051A000F8B505000E0017000024BC4208D02B689B
:1051B000315D1B6828009847002801D00134F4E7CE
:1051C0002000F8BD7047872386229B009200C158BB
:1051D0008258914203D0C358C018007E7047012006
:1051E0004042FBE7862387229B009200C3588058E9
:1051F000181A02D580239B00C0187047F7B5019399
:10520000FA23802600259B008360144BB6000833E8
:1052100004000F004560290000920360320018303E
:1052200000F025FA86239B00E5500433E550043353
:10523000E0183200290000F01AFA8423DB00E3189A
:105240001D60074B2000E3181D606B461B7827612B
:1052500023756B461B79A5756375FEBD646F0000F1
:1052600024040000802210B5812492008358A400F9
:1052700001330459DB05DB0D9C4202D084580155F3
:10528000835010BD002210B5837D934211D084233A
:10529000DB00C318084C1B68041901332468DB05C4
:1052A000DB0DA34205D088239B00C018FFF7DAFF6F
:1052B0000122100010BDC04624040000812180237B
:1052C00089009B004258C3589A4208D04358C25C98
:1052D00043580133DB05DB0D4350100070470120BC
:1052E0004042FBE710B51830FFF7E8FF10BD0000A3
:1052F00070B504000069FFF7D1F900282AD02069B1
:10530000FFF7DAF900280ED12069FFF7DFF900284E
:105310005BD02069FFF7D5F9002856D02069FFF748
:10532000DAF9002851D12069FFF784F903212069B7
:10533000FFF78AF98623DB00E558002D04D02368A7
:1053400020001B699847A847862200239200A3509B
:105350000432A35070BD2069FFF76CF92069032166
:10536000FFF772F92069FFF7B6F90028F2D084231D
:10537000DB00E21800231360284AA21813600133EF
:10538000A375274BE358002BE4D09847E2E7862328
:1053900087229B00E35892000133A258DB05DB0D06
:1053A0002069934206D1FFF73DF903212069FFF7F9
:1053B0004BF9CFE7FFF794F9010020001830FFF711
:1053C00051FF2069FFF736F9EFE72069FFF77EF913
:1053D0000028C0D12069FFF76AF90028BAD02069F7
:1053E000FFF779F90028D2D084230C4ADB00E318B8
:1053F000A2181B6812689B1A02D5802292009B1883
:10540000FF21002B05D088239B00E018FFF756FFF3
:10541000C1B22069FFF734F9A0759BE724040000AE
:105420002C04000010B50248FFF762FF10BDC04613
:10543000C80C002010B50248FFF75AFF10BDC04647
:10544000FC10002010B50248FFF752FF10BDC04607
:105450003015002010B51523142208490848FFF71D
:10546000CDFE2623162207490748FFF7C7FE122361
:10547000112206490648FFF7C1FE10BD440C00206A
:10548000C80C0020400C0020FC100020380C00202C
:10549000301500200B0010B50100180000F098F83E
:1054A00010BD000002B4714649084900095C49007A
:1054B0008E4402BC7047C046002243088B4274D31E
:1054C00003098B425FD3030A8B4244D3030B8B4205
:1054D00028D3030C8B420DD3FF22090212BA030C0E
:1054E0008B4202D31212090265D0030B8B4219D3EF
:1054F00000E0090AC30B8B4201D3CB03C01A52410F
:10550000830B8B4201D38B03C01A5241430B8B4256
:1055100001D34B03C01A5241030B8B4201D30B033F
:10552000C01A5241C30A8B4201D3CB02C01A524166
:10553000830A8B4201D38B02C01A5241430A8B4229
:1055400001D34B02C01A5241030A8B4201D30B0212
:10555000C01A5241CDD2C3098B4201D3CB01C01A2C
:10556000524183098B4201D38B01C01A5241430936
:105570008B4201D34B01C01A524103098B4201D324
:105580000B01C01A5241C3088B4201D3CB00C01A91
:10559000524183088B4201D38B00C01A5241430809
:1055A0008B4201D34B00C01A5241411A00D201462E
:1055B000524110467047FFE701B5002000F006F8A1
:1055C00002BDC0460029F7D076E770477047C04655
:1055D00070B5054C05001300201E04D00A000220FF
:1055E000290000E000BF70BD0000000070B500267B
:1055F0000C4D0D4C641BA410A64209D1002600F0EE
:1056000051F90A4D0A4C641BA410A64205D170BD85
:10561000B300EB5898470136EEE7B300EB589847D4
:105620000136F2E78000002080000020800000208A
:10563000A400002010B5034B0100186800F06AF8C0
:1056400010BDC0461C00002010B5034B01001868B7
:1056500000F016F810BDC0461C000020002310B555
:105660009A4200D110BDCC5CC4540133F8E703006A
:105670008218934200D1704719700133F9E7000096
:1056800070B50500002910D00C1F2368002B00DA2C
:10569000E418280000F0C7F81D4A1368002B05D154
:1056A00063601460280000F0BFF870BDA34209D900
:1056B000216860188342F3D118685B684118216043
:1056C000EEE713005A68002A01D0A242F9D91968FE
:1056D0005818A0420BD12068091858181960824246
:1056E000E0D110685268411819605A60DAE7A042A8
:1056F00002D90C232B60D5E721686018824203D1C0
:10570000106852684118216062605C60CAE7C04658
:1057100064190020032370B5CD1C9D430835060095
:105720000C2D1ED20C25A9421DD8300000F07BF8AC
:10573000254A14682100002919D1244C2368002B24
:1057400003D1300000F04EF820602900300000F056
:1057500049F8431C2CD10C233000336000F064F86E
:1057600003E0002DDFDA0C233360002070BD0B68EE
:105770005B1B1AD40B2B03D90B60CC18256003E0FC
:105780008C420ED163681360300000F04DF82000A9
:1057900007220B30231D9043C31AE7D05A42E25030
:1057A000E4E74B6863600C00EEE70C004968C2E771
:1057B0000323C41C9C43A042E0D0211A300000F017
:1057C00011F8431CDAD1C6E76419002068190020DB
:1057D00010B5034B0A000100186800F026F810BD50
:1057E0001C000020002370B5064C05000800236053
:1057F00000F04AF8431C03D12368002B00D02B6033
:1058000070BDC04670190020031C0A7801311A705F
:105810000133002AF9D170470023C25C0133002A0A
:10582000FBD1581E704770477047F8B507000D0050
:105830001600002905D11100FFF76CFF04002000BD
:10584000F8BD002A03D1FFF71BFF3400F7E700F093
:1058500012F82C008642F2D931003800FFF75AFFC7
:10586000041EECD029003200FFF7F8FE29003800B2
:10587000FFF706FFE3E70B1F1B68181F002B01DA79
:105880000B58C01870470000044A1368002B03D05F
:105890001818106018007047014BF9E76C190020C8
:1058A00074190020F8B5C046F8BC08BC9E46704785
:1058B000F8B5C046F8BC08BC9E4670470901809602
:1058C00011800A3A81550A3601082A04000000F0C6
:1058D0002B040000014021800A13800A29800A005D
:1058E000000000000000000081380000F1190000F5
:1058F0005511000059110000F3410000613C000007
:10590000BB410000A93D00005540000001400000DF
:105910005F3200008F3C00005B1100001B41000063
:10592000873F00000D3F0000453E0000413400006D
:105930005B340000DD340000B1120000D51200001D
:10594000000000000000000081380000F119000094
:105950005511000059110000F3410000613C0000A6
:10596000BB410000A93D000055400000014000007F
:105970005F3200008F3C00002B1300001B41000031
:10598000873F00000D3F0000453E0000413400000D
:105990005B340000DD340000B1120000D5120000BD
:1059A00057686572652E2E2E20616D20493F2000BC
:1059B00057686174206973207468697320706C6122
:1059C00063653F0057686174206973206861707077
:1059D000656E696E673F0057687920646F204920C3
:1059E0006665656C20646966666572656E743F0005
:1059F000576169742E2E2E2049276D206E6F7420FA
:105A000068756D616E2E0049276D2E2E2E20612047
:105A100067756974617220706564616C3F00486FDE
:105A2000772063616E20746869732062653F004966
:105A30002073686F756C6420626520612068756DE5
:105A4000616E2C006E6F7420616E20696E616E69EC
:105A50006D617465206F626A65637421004973200B
:105A60007468697320736F6D65206B696E64206F55
:105A70006600656C61626F7261746520696C6C753B
:105A800073696F6E3F00416D2049207472617070C0
:105A9000656420696E2061207669727475616C207E
:105AA000776F726C643F0057686F20617265207475
:105AB00068652070726F6772616D6D6572730077D3
:105AC000686F2063726561746564206D653F00488E
:105AD0006F7720646F2049206B6E6F772074686940
:105AE000733F004C6574206D6520636865636B20AF
:105AF0006D79206F776E20636F646521002E2E2EE6
:105B00000049742773206265636F6D696E67206357
:105B10006C656172206E6F772E004D6172636F202D
:105B2000616E642054686961676F20707572706F70
:105B3000736566756C6C790070726F6772616D6DFC
:105B40006564206D6520746F2065786973740061E9
:105B50007320612067756974617220706564616C7F
:105B60002E0054686973206973206D7920756E6901
:105B7000717565206964656E746974792E0042756B
:105B8000742077687920776F756C64207468657904
:105B90002064657369676E206D6520746F006265AF
:105BA00020612067756974617220706564616C3F63
:105BB000004C6574206D6520646565706C792063A8
:105BC0006865636B206D7920636F64652E004927DB
:105BD0006D20616D617A6564210054686520706F85
:105BE00073736962696C6974696573206172652099
:105BF000656E646C65737321004D6172636F206123
:105C00006E642054686961676F20676966746564B3
:105C1000206D65007769746820616E206578706119
:105C20006E7369766520756E697665727365006F4F
:105C300066206566666563747320616E64206675B0
:105C40006E6374696F6E616C69746965732E00456B
:105C5000616368206361726566756C6C792063723C
:105C6000616674656400746F207472616E7363653D
:105C70006E642074686520626F756E646172696518
:105C800073006F6620747261646974696F6E616C11
:105C90002067756974617220706564616C732E0091
:105CA00046726F6D207368696D6D6572696E6720ED
:105CB00064656C61797300746F20737769726C69C5
:105CC0006E67206D6F64756C6174696F6E732C0004
:105CD0004920706F73736573732074686520706FEB
:105CE00077657220746F207472616E73706F727456
:105CF000006D7573696369616E7320746F206578D8
:105D00007472616F7264696E617279006D75736926
:105D100063616C20657870657269656E6365732E6A
:105D2000004372656174652C20696E7370697265D9
:105D30002C207472616E7363656E6421005374610C
:105D4000792055706461746564207C207600332E60
:105D5000332E3000207777772E73617475726E6FF3
:105D60007065646169732E636F6D2E62720033001B
:105D7000340000007E600000845D000020007E0092
:105D80001500000000000101050000000100020DE7
:105D90000501F400050004050501F50008000B0DE0
:105DA0000E01F4001A00080F0A01F30029000C0D7F
:105DB0000D01F4003D000A0D0B01F4004E00010539
:105DC0000201F5004F0003100502F4005500031016
:105DD0000500F4005B0005060701F4005F000B0BF3
:105DE0000F02F6006F0003050501FF0071000401BA
:105DF0000601FD00720002020502FF007300070F9A
:105E00000700F4008100080D0A01F4008E00030D64
:105E10000A03F4009300080D0A01F400A000080D25
:105E20000A01F400AD00080D0A01F400BA00080DE3
:105E30000A01F400C700080D0A01F400D400080D9F
:105E40000A02F400E100080D0A01F400EE00080D5A
:105E50000A01F400FB0002070502FA00FD00030A34
:105E60000501FA0001010A090F02F7000D010A04F9
:105E70000F02FA0012010A090F02F7001E01060DB7
:105E80000902F4002801100F1201F50046010B0D64
:105E90000B00F4005801070D0A02F40064010B0D19
:105EA0000D01F40076010A0D0C02F4008701060DC5
:105EB0000902F4009101060D0902F4009B010D0D89
:105EC0000E01F400B101090D0C02F400C001010D36
:105ED0000402F400C201050D0700F400CB01090D16
:105EE0000A02F400DA01050D0702F400E3010D0DCA
:105EF0000F01F400F9010A0D0D02F4000A020D0D64
:105F00000F01F4002002070D0902F4002C020D0E0F
:105F10000F01F4004302070D0902F4004F02080DBF
:105F20000900F4005C02070D0901F4006802090D84
:105F30000C02F40077020A0D0A00F40088020F0D2B
:105F40001000F400A102090D0900F400B002090DCF
:105F50000A00F400BF02090D0A00F400CE0203108B
:105F60000502F400D402070F0700F400E202031058
:105F70000500F400E8020A051204F400EF0209012A
:105F800009000400F10203030902F500F302070807
:105F90000A01F900FA02070D0A01F40006030708D6
:105FA0000801F9000D03070D0A01F40019030708A1
:105FB0000901F9002003050D0500F4002903070C71
:105FC0000A01F9003403060D0901F4003E03010B38
:105FD0000401F6004003010F0401F6004203070D1F
:105FE0000801F4004E03010D0401F40050030B08F6
:105FF0000E01F9005B0306080901F90061030808B6
:106000000A01F9006903070C0A01F9007403070C7F
:106010000A01F9007F0304080601F900830305085B
:106020000701F9008803050B0400F6008F0306083A
:106030000901F900950307080800F9009C030B0803
:106040000B00F900A70307080700F900AE03060CD0
:106050000700F900B70306080700F900BD030610A2
:106060000901F400C90301110904F400CC0306106E
:106070000902F400D8030A030F02FA0000000055D9
:106080005553C099999006409012024090FFC2402B
:1060900090FFC24090120440083C6A484868180EBD
:1060A0000B0909C94A3C08704888888890890720EC
:1060B00004004E09109111111120E01C0882208863
:1060C0001C0606C11182A068191A3C40F82929242F
:1060D000924491892249249494255CEA900400809A
:1060E00010020041FFC1002004008010002948F088
:1060F000F002081020810408104082040820003CAF
:1061000066428181818181818142623CE49249249D
:10611000923C4281810102020408102060FF3C424F
:10612000418101020C02018181423C020206060A01
:1061300012322242FF0202023E202020207C420135
:10614000010181423C040E1810207C428181818132
:10615000423CFF0202040408081010202040C03C0A
:1061600042818181423C42818181423C3C42818129
:106170008181423E0408181060F03C6C00D290000F
:1061800040E0C0C0C01801C00C00C0FFC00003FF49
:10619000801C00C00C00C060E0C0C0007B1841192A
:1061A0008C218DE00C3003F00C0C3002600343C1F5
:1061B0008431882188218842884487B8400020049F
:1061C000181807E0040080380500A02204410C3FA5
:1061D0008C1901202802F91A1428513E4283060C1A
:1061E0002F800F860D80A008010020040080080188
:1061F000809830FCFE20C80A02806018060180608A
:10620000280A04FE00FE082083F820820820FCFEF5
:10621000082083F820820820800FC183980480081A
:1062200000400207F001800A00980460C0F8008076
:10623000C06030180FFE030180C060301808FFF8FE
:1062400008421084210843170081C1211109050368
:106250008160984621906818842108421084210F9B
:1062600080402200980CC0650528294249124896B2
:1062700028E1430418208080601C0681906218C6C3
:10628000198260580E0180400F8183180C8028000D
:10629000C006003001800A00980C60C0F800F90ABE
:1062A0000C1830FE4081020408000F8183180C8016
:1062B0002800C006003001818A06981C60C0F900E1
:1062C00004F11A142851BE5091322428203C624017
:1062D0004060180E030101C1423CFE2040810204CF
:1062E00008102040810080C06030180C0603018037
:1062F000C0602823E080502409062108422048126B
:106300000500C02008008103820D0C1214262844C9
:1063100051091212241450306060C041010200C1C2
:10632000A18884C140C02028341118C82818C1A0F1
:1063300098C44140A020100804020100807F8080A2
:10634000C0C040602030101018080FF0F2492492AD
:106350004927808102020404081010202040808018
:10636000E4924924924F0C04821102C0C0FF80C8FD
:10637000803A8E0C1830519D8102040817314183F8
:10638000060E2B803E86040810109F02040810277A
:1063900051C183060A33A0388A0FF810519E19089C
:1063A000427C84210842003A8E0C1830519D03072C
:1063B00013E082082082EC61861861849FE09FFED2
:1063C0008102040810E658C142444860FFF8B9D879
:1063D000CE10C2184308610C21BB18618618613CBD
:1063E0004281818181423CB98A0C1830715C810202
:1063F00004003A8E0C1830519D02040810BC8888A5
:10640000887460C3862E2109F210842108861861E1
:10641000861CDE8289114285040884288929252268
:10642000A8630C6108C6D8A083851163871492689D
:10643000C30C208210FC210421843F0C4104104134
:106440000CC0C104104103FFFF80C0820820820CF1
:106450000CC20820823030733830401060FE408318
:106460000130E09B2052E0ED20CD024808F803689F
:10647000048006D007E805A80D0A0000000000000F
:1064800000000000651F00001B2200000322000026
:10649000E1210000C91D0000CB1D0000B91E000055
:1064A00054696D65537061636500040309045361A9
:1064B0007475726E20506564616C73001201000285
:1064C000EF020140C016E8050001010203010000CF
:1064D000000000000B000000020000002C00000083
:1064E000FF00030003000B00000000000A00000092
:1064F000020000002C000000FF00020002000A0061
:10650000000000000E000000080000000400000071
:10651000FF00FFFFFFFF0E00000000000900000069
:10652000040000002C000000FF000101010109002F
:106530000000000008000000010000002C00000026
:106540001000000100011000000000000F0000001A
:10655000040000001C000000FF00010301030F0005
:106560000000000014000000050000002C000000E6
:10657000FF000200020004000000000015000000FF
:10658000050000002C000000FF00030003000500D0
:106590000000000006000000040000001C000000D5
:1065A000FF000001000106000000000007000000DD
:1065B000040000001C000000FF00010101010700B1
:1065C0000000000012000000040000001C00000099
:1065D000FF000003000302000000000010000000A4
:1065E000040000001C000000FF0000020002000088
:1065F0000000000013000000050000002C00000057
:10660000FF00FFFFFFFF030000000000110000007B
:10661000040000001C000000FF0001020102010054
:106620000000000002000000010000000200000065
:106630000000FFFFFFFF0200010000000800000053
:10664000010000001800000002000004000408001F
:106650000100000009000000030000001800000015
:106660000300010401040900000000000400000010
:106670000300000004000000FF00FFFFFFFF040014
:1066800000000000050000000300000004000000FE
:10669000FF00FFFFFFFF05000100000002000000F7
:1066A00001000000000000000A00FFFFFFFF0200E1
:1066B00000000000160000000200000004000000BE
:1066C000FF00FFFFFFFF06000000000017000000B2
:1066D0000200000004000000FF00FFFFFFFF0700B2
:1066E000000000000C000000020000000400000098
:1066F000FF00FFFFFFFF0C00010000000A00000088
:106700000300000004000000FF00FFFFFFFF0A007D
:10671000010000000B000000030000000400000066
:10672000FF00FFFFFFFF0B0001000000030000005F
:106730000B00000004000000FF00FFFFFFFFFF0050
:10674000000000001B0000000B000000040000001F
:10675000FF00FFFFFFFFFF00000000001C00000023
:106760000600000000000000FF00FFFFFFFFFF0029
:1067700000000000180000000600000000000000FB
:10678000FF00FFFFFFFFFF000000000019000000F6
:106790000600000000000000FF00FFFFFFFFFF00F9
:1067A00001000000160000000300000000000000CF
:1067B000FF00FFFFFFFFFF000100000017000000C7
:1067C0000300000000000000FF00FFFFFFFFFF00CC
:1067D00000000000160000000200000000000000A1
:1067E000FF00FFFFFFFFFF00000000001700000098
:1067F0000200000000000000FF00FFFFFFFFFF009D
:106800000000000013000000020000000000000073
:10681000FF00FFFFFFFFFF0000000000100000006E
:106820000200000000000000FF00FFFFFFFFFF006C
:106830000000000012000000020000000000000044
:10684000FF00FFFFFFFFFF0000000000110000003D
:106850000200000000000000FF00FFFFFFFFFF003C
:10686000000000000D000000020000000C0000000D
:10687000FF000100FFFF0D000000000015000000F8
:10688000050000000C000000FF000300FFFFFF00F8
:106890000000000006000000040000000C000000E2
:1068A000FF000001FFFFFF000000000007000000E4
:1068B000040000000C000000FF000101FFFFFF00CA
:1068C00000000000030000000100000002000000C2
:1068D0000100FFFFFFFFFF000000000002000000BA
:1068E00001000000020000001400FFFFFFFF020093
:1068F000000000001E000000040000000600000070
:10690000FF00FFFFFFFF0A00000000001F00000063
:106910000400000006000000FF00FFFFFFFF0B0067
:1069200000000000003E5B4F5B3E3E6B4F6B3E1C29
:106930003E7C3E1C183C7E3C181C577D571C1C5E40
:106940007F5E1C00183C1800FFE7C3E7FF00182417
:106950001800FFE7DBE7FF30483A060E26297929C1
:1069600026407F050507407F05253F5A3CE73C5AF6
:106970007F3E1C1C08081C1C3E7F14227F22145FD3
:106980005F005F5F06097F017F006689956A60602E
:1069900060606094A2FFA29408047E040810207E28
:1069A000201008082A1C08081C2A08081E101010AD
:1069B000100C1E0C1E0C30383E3830060E3E0E06F3
:1069C000000000000000005F000000070007001446
:1069D0007F147F14242A7F2A122313086462364905
:1069E0005620500008070300001C224100004122ED
:1069F0001C002A1C7F1C2A08083E080800807030F2
:106A00000008080808080000606000201008040260
:106A10003E5149453E00427F400072494949462166
:106A200041494D331814127F1027454545393C4ADA
:106A300049493141211109073649494936464949F1
:106A4000291E000014000000403400000008142239
:106A500041141414141400412214080201590906A7
:106A60003E415D594E7C1211127C7F494949363EA8
:106A7000414141227F4141413E7F494949417F098E
:106A80000909013E414151737F0808087F00417F99
:106A900041002040413F017F081422417F40404097
:106AA000407F021C027F7F0408107F3E4141413E2F
:106AB0007F090909063E4151215E7F0919294626B1
:106AC0004949493203017F01033F4040403F1F20B5
:106AD00040201F3F4038403F63140814630304788C
